{
  "contractName": "Scontract",
  "abi": [
    {
      "inputs": [],
      "stateMutability": "nonpayable",
      "type": "constructor"
    },
    {
      "anonymous": false,
      "inputs": [
        {
          "indexed": false,
          "internalType": "uint256",
          "name": "number",
          "type": "uint256"
        }
      ],
      "name": "NumberStored",
      "type": "event"
    },
    {
      "inputs": [],
      "name": "owner",
      "outputs": [
        {
          "internalType": "address",
          "name": "",
          "type": "address"
        }
      ],
      "stateMutability": "view",
      "type": "function",
      "constant": true
    },
    {
      "inputs": [],
      "name": "temperature",
      "outputs": [
        {
          "internalType": "uint256",
          "name": "",
          "type": "uint256"
        }
      ],
      "stateMutability": "view",
      "type": "function",
      "constant": true
    },
    {
      "inputs": [],
      "name": "storeRandomNumber",
      "outputs": [],
      "stateMutability": "nonpayable",
      "type": "function"
    },
    {
      "inputs": [],
      "name": "getStoredNumber",
      "outputs": [
        {
          "internalType": "uint256",
          "name": "",
          "type": "uint256"
        }
      ],
      "stateMutability": "view",
      "type": "function",
      "constant": true
    }
  ],
  "bytecode": "0x608060405234801561000f575f80fd5b50335f806101000a81548173ffffffffffffffffffffffffffffffffffffffff021916908373ffffffffffffffffffffffffffffffffffffffff1602179055505f60028190555061049c806100635f395ff3fe608060405234801561000f575f80fd5b506004361061004a575f3560e01c80638da5cb5b1461004e578063adccea121461006c578063cc5c26661461008a578063fc412ba114610094575b5f80fd5b6100566100b2565b6040516100639190610251565b60405180910390f35b6100746100d5565b6040516100819190610282565b60405180910390f35b6100926100db565b005b61009c6101c8565b6040516100a99190610282565b60405180910390f35b5f8054906101000a900473ffffffffffffffffffffffffffffffffffffffff1681565b60015481565b5f8054906101000a900473ffffffffffffffffffffffffffffffffffffffff1673ffffffffffffffffffffffffffffffffffffffff163373ffffffffffffffffffffffffffffffffffffffff1614610168576040517f08c379a000000000000000000000000000000000000000000000000000000000815260040161015f9061031b565b60405180910390fd5b6101706101d1565b60018190555060025f81548092919061018890610366565b91905055507f3564ffb2fd8f93d7b0e9d1173ffdff5ee9775d860bfe82eaca0d0dbe07c8b6346001546040516101be9190610282565b60405180910390a1565b5f600154905090565b5f602944426002546040516020016101eb939291906103cd565b604051602081830303815290604052805190602001205f1c61020d9190610436565b905090565b5f73ffffffffffffffffffffffffffffffffffffffff82169050919050565b5f61023b82610212565b9050919050565b61024b81610231565b82525050565b5f6020820190506102645f830184610242565b92915050565b5f819050919050565b61027c8161026a565b82525050565b5f6020820190506102955f830184610273565b92915050565b5f82825260208201905092915050565b7f4f6e6c7920746865206f776e65722063616e20706572666f726d2074686973205f8201527f616374696f6e0000000000000000000000000000000000000000000000000000602082015250565b5f61030560268361029b565b9150610310826102ab565b604082019050919050565b5f6020820190508181035f830152610332816102f9565b9050919050565b7f4e487b71000000000000000000000000000000000000000000000000000000005f52601160045260245ffd5b5f6103708261026a565b91507fffffffffffffffffffffffffffffffffffffffffffffffffffffffffffffffff82036103a2576103a1610339565b5b600182019050919050565b5f819050919050565b6103c76103c28261026a565b6103ad565b82525050565b5f6103d882866103b6565b6020820191506103e882856103b6565b6020820191506103f882846103b6565b602082019150819050949350505050565b7f4e487b71000000000000000000000000000000000000000000000000000000005f52601260045260245ffd5b5f6104408261026a565b915061044b8361026a565b92508261045b5761045a610409565b5b82820690509291505056fea2646970667358221220096d4b0c3ae1c5670093cd3f6747d76834f0666504967778b37e7db84fba638c64736f6c63430008140033",
  "immutableReferences": {},
  "source": "// SPDX-License-Identifier: UNLICENSED\r\npragma solidity ^0.8.0;\r\n\r\ncontract Scontract {\r\n    address public owner;\r\n    uint256 public temperature;\r\n    uint256 private nonce;\r\n\r\n    event NumberStored(uint256 number);\r\n\r\n    constructor() {\r\n        owner = msg.sender;\r\n        nonce = 0;\r\n    }\r\n\r\n    modifier onlyOwner() {\r\n        require(msg.sender == owner, \"Only the owner can perform this action\");\r\n        _;\r\n    }\r\n\r\n    // Function to generate a pseudo-random number based on block and timestamp, restricted to a range (0 to 40)\r\n    function random() private view returns (uint256) {\r\n        return uint256(keccak256(abi.encodePacked(block.prevrandao, block.timestamp, nonce))) % 41;\r\n    }\r\n\r\n    // Function to store a randomly generated number\r\n    function storeRandomNumber() external onlyOwner {\r\n        temperature = random();\r\n        nonce++;\r\n        emit NumberStored(temperature);\r\n    }\r\n\r\n    // Function to retrieve the stored random number\r\n    function getStoredNumber() external view returns (uint256) {\r\n        return temperature;\r\n    }\r\n}\r\n",
  "sourcePath": "C:\\Users\\tsuki\\Desktop\\pre-practica\\contracts\\Scontract.sol",
  "compiler": {
    "name": "solc",
    "version": "0.8.20+commit.a1b79de6.Emscripten.clang"
  },
  "schemaVersion": "3.4.14",
  "updatedAt": "2023-07-27T20:33:21.191Z",
  "networkType": "ethereum",
  "devdoc": {
    "kind": "dev",
    "methods": {},
    "version": 1
  },
  "userdoc": {
    "kind": "user",
    "methods": {},
    "version": 1
  }
}